:100000000C942A000C943B090C9447000C94470074
:100010000C9447000C9447000C9447000C94470044
:100020000C9447000C9447000C9447000C94490032
:100030000C9447000C9447000C9447000C94470024
:100040000C9447000C9447000C9447000C94470014
:100050000C94470011241FBECFE5D8E0DEBFCDBF12
:1000600011E0A0E6B0E0E2E1F0E602C005900D92FA
:10007000A83CB107D9F718E0A8ECB1E001C01D9287
:10008000AB32B107E1F70E944A0B0C9407300C9495
:1000900000001F920F920FB60F9211242F933F93DF
:1000A0008F939F93AF93BF93EF93FF93DF93CF9380
:1000B000CDB7DEB78091CE01982F92959F70809139
:1000C000CF0181708295807F892B8823D1F5A2E3AF
:1000D000B0E0E2E3F0E0908188E089278C93E2E5EC
:1000E000F0E08091CF01982F96958091D00181709A
:1000F000879588278795892B282F8091D001982F65
:1001000096958091D1018170879588278795892B55
:10011000382F822F809580838091CE01982F9295E1
:100120009F708091CF0181708295807F892B8F7124
:10013000982F990F8091D101817C892B8093D101D7
:1001400012C08091D10186958F71815E8F718F7100
:10015000982F990F8091D101817C892B8093D101B7
:10016000E2E5F0E01082E8E5F0E081E08083CF9105
:10017000DF91FF91EF91BF91AF919F918F913F914F
:100180002F910F900FBE0F901F901895DF93CF9374
:10019000CDB7DEB76D970FB6F894DEBF0FBECDBFFB
:1001A0008D8FA2E3B0E0E2E3F0E0808182608C9387
:1001B000A2E3B0E0E2E3F0E080818F708C93A2E3F1
:1001C000B0E0E2E3F0E08081982F8D8D807F892B75
:1001D0008C93A2E3B0E0E2E3F0E080818D7F8C932A
:1001E00080E090E0A0EAB0E4898F9A8FAB8FBC8F5B
:1001F00020E030E04AE754E4698D7A8D8B8D9C8D48
:100200000E947C2ADC01CB018D8B9E8BAF8BB88F3B
:1002100020E030E040E85FE36D897E898F89988D2A
:100220000E94802C88232CF481E090E09C8B8B8BA7
:100230003FC020E03FEF4FE757E46D897E898F890B
:10024000988D0E94202C18164CF520E030E040E2FA
:1002500051E4698D7A8D8B8D9C8D0E947C2ADC0106
:10026000CB01BC01CD010E94A628DC01CB019C8BF7
:100270008B8B0FC084E690E09A8B898B89899A8951
:100280000197F1F79A8B898B8B899C8901979C8BBD
:100290008B8B8B899C89009769F714C06D897E8947
:1002A0008F89988D0E94A628DC01CB019C8B8B8BBB
:1002B0008B899C89988B8F878F8598890197F1F717
:1002C000988B8F87A2E3B0E0E2E3F0E08081826068
:1002D0008C93A2E3B0E0E2E3F0E080818F708C9336
:1002E000A2E3B0E0E2E3F0E08081282F8D8D882F3B
:1002F00090E082959295907F9827807F9827822B17
:100300008C93A2E3B0E0E2E3F0E080818D7F8C93F8
:1003100080E090E0A0EAB0E48B879C87AD87BE8741
:1003200020E030E04AE754E46B857C858D859E852E
:100330000E947C2ADC01CB018F839887A987BA872A
:1003400020E030E040E85FE36F81788589859A8519
:100350000E94802C88232CF481E090E09E838D8382
:100360003FC020E03FEF4FE757E46F8178858985F4
:100370009A850E94202C18164CF520E030E040E2CF
:1003800051E46B857C858D859E850E947C2ADC01ED
:10039000CB01BC01CD010E94A628DC01CB019E83CC
:1003A0008D830FC084E690E09C838B838B819C813E
:1003B0000197F1F79C838B838D819E8101979E83AA
:1003C0008D838D819E81009769F714C06F81788538
:1003D00089859A850E94A628DC01CB019E838D83A6
:1003E0008D819E819A83898389819A810197F1F712
:1003F0009A838983A2E3B0E0E2E3F0E08081826047
:100400008C936D960FB6F894DEBF0FBECDBFCF9123
:10041000DF910895DF93CF93CDB7DEB769970FB61D
:10042000F894DEBF0FBECDBF898FA2E3B0E0E2E358
:10043000F0E080818E7F8C93898D0E94C600A2E3BC
:10044000B0E0E2E3F0E0808181608C9380E090E0B6
:10045000A0E2B2E48D8B9E8BAF8BB88F2BEA3AEA89
:100460004AEA5FE36D897E898F89988D0E947C2A94
:10047000DC01CB01898B9A8BAB8BBC8B20E030E00D
:1004800040E85FE369897A898B899C890E94802C86
:1004900088231CF481E0888B91C020E030E04FE796
:1004A00053E469897A898B899C890E94202C1816CB
:1004B0000CF07BC020E030E04AE754E46D897E898F
:1004C0008F89988D0E94762BDC01CB018C879D87CC
:1004D000AE87BF8720E030E04AE754E46C857D8535
:1004E0008E859F850E947C2ADC01CB0188879987B5
:1004F000AA87BB8720E030E040E85FE36885798524
:100500008A859B850E94802C88232CF481E090E0D2
:100510009F838E833FC020E03FEF4FE757E468851D
:1005200079858A859B850E94202C18164CF520E041
:1005300030E040E251E46C857D858E859F850E9488
:100540007C2ADC01CB01BC01CD010E94A628DC0184
:10055000CB019F838E830FC084E690E09D838C83C4
:100560008C819D810197F1F79D838C838E819F8182
:1005700001979F838E838E819F81009769F724C0A6
:10058000688579858A859B850E94A628DC01CB0138
:100590009F838E838E819F819B838A838A819B81A7
:1005A0000197F1F79B838A830FC069897A898B89C8
:1005B0009C890E94A628DC01CB01888B88898983CD
:1005C00089818A95F1F7898369960FB6F894DEBF21
:1005D0000FBECDBFCF91DF910895DF93CF93CDB7FD
:1005E000DEB7EA970FB6F894DEBF0FBECDBFA1E32A
:1005F000B0E0E1E3F0E08081836F8C93A2E3B0E0B0
:10060000E2E3F0E080818C708C93A2E3B0E0E2E35F
:10061000F0E0808182608C93A2E3B0E0E2E3F0E05E
:1006200080818E7F8C93A2E3B0E0E2E3F0E08081F2
:100630008F708C93A2E3B0E0E2E3F0E0808180630E
:100640008C9380E090E0A0E2B2E48DAB9EABAFABC8
:10065000B8AF20E030E04AE754E46DA97EA98FA945
:1006600098AD0E947C2ADC01CB0189AB9AABABAB85
:10067000BCAB20E030E040E85FE369A97AA98BA930
:100680009CA90E94802C88232CF481E090E098ABF8
:100690008FA73FC020E03FEF4FE757E469A97AA951
:1006A0008BA99CA90E94202C18164CF520E030E064
:1006B00040E251E46DA97EA98FA998AD0E947C2AE1
:1006C000DC01CB01BC01CD010E94A628DC01CB01DD
:1006D00098AB8FA70FC084E690E09EA78DA78DA54D
:1006E0009EA50197F1F79EA78DA78FA598A90197C1
:1006F00098AB8FA78FA598A9009769F714C069A92F
:100700007AA98BA99CA90E94A628DC01CB0198ABF1
:100710008FA78FA598A99CA78BA78BA59CA50197B0
:10072000F1F79CA78BA71AAE19AE87C00000000096
:10073000A2E3B0E0E2E3F0E080818D7F8C9380E083
:1007400090E0A0EAB0E48FA398A7A9A7BAA720E0F9
:1007500030E04AE754E46FA178A589A59AA50E94E4
:100760007C2ADC01CB018BA39CA3ADA3BEA320E01C
:1007700030E040E85FE36BA17CA18DA19EA10E94C7
:10078000802C88232CF481E090E09AA389A33FC0B9
:1007900020E03FEF4FE757E46BA17CA18DA19EA124
:1007A0000E94202C18164CF520E030E040E251E485
:1007B0006FA178A589A59AA50E947C2ADC01CB01AE
:1007C000BC01CD010E94A628DC01CB019AA389A31C
:1007D0000FC084E690E098A38F8F8F8D98A101972A
:1007E000F1F798A38F8F89A19AA101979AA389A362
:1007F00089A19AA1009769F714C06BA17CA18DA172
:100800009EA10E94A628DC01CB019AA389A389A1FD
:100810009AA19E8F8D8F8D8D9E8D0197F1F79E8F62
:100820008D8FA2E3B0E0E2E3F0E0808182608C9300
:1008300089AD9AAD01969AAF89AF89AD9AAD8330F3
:1008400091050CF473CFA2E3B0E0E2E3F0E0808125
:100850008F708C93A2E3B0E0E2E3F0E080818062ED
:100860008C930000A2E3B0E0E2E3F0E080818D7FB2
:100870008C9380E090E0A0E2B1E4898F9A8FAB8FF7
:10088000BC8F20E030E04AE754E4698D7A8D8B8D8F
:100890009C8D0E947C2ADC01CB018D8B9E8BAF8BC3
:1008A000B88F20E030E040E85FE36D897E898F8972
:1008B000988D0E94802C88232CF481E090E09C8B02
:1008C0008B8B3FC020E03FEF4FE757E46D897E8977
:1008D0008F89988D0E94202C18164CF520E030E06E
:1008E00040E251E4698D7A8D8B8D9C8D0E947C2A2B
:1008F000DC01CB01BC01CD010E94A628DC01CB01AB
:100900009C8B8B8B0FC084E690E09A8B898B8989B6
:100910009A890197F1F79A8B898B8B899C8901972A
:100920009C8B8B8B8B899C89009769F714C06D8990
:100930007E898F89988D0E94A628DC01CB019C8B33
:100940008B8B8B899C89988B8F878F859889019752
:10095000F1F7988B8F87A2E3B0E0E2E3F0E08081CB
:1009600082608C9388E20E940A028CE10E940A0253
:1009700086E00E940A028CE00E940A0280E090E079
:10098000A0E2B1E48B879C87AD87BE8720E030E092
:100990004AE754E46B857C858D859E850E947C2A80
:1009A000DC01CB018F839887A987BA8720E030E0EC
:1009B00040E85FE36F81788589859A850E94802C65
:1009C00088232CF481E090E09E838D833FC020E05B
:1009D0003FEF4FE757E46F81788589859A850E94BC
:1009E000202C18164CF520E030E040E251E46B85F5
:1009F0007C858D859E850E947C2ADC01CB01BC0113
:100A0000CD010E94A628DC01CB019E838D830FC0FF
:100A100084E690E09C838B838B819C810197F1F726
:100A20009C838B838D819E8101979E838D838D8195
:100A30009E81009769F714C06F81788589859A85B2
:100A40000E94A628DC01CB019E838D838D819E812F
:100A50009A83898389819A810197F1F79A8389839F
:100A60000E94AE06EA960FB6F894DEBF0FBECDBF69
:100A7000CF91DF910895DF93CF9300D000D000D0C5
:100A8000CDB7DEB79C838B837E836D8380E40E9429
:100A90000A021A82198210C0EB81FC8120818B81AD
:100AA0009C8101969C838B83822F0E94C600898142
:100AB0009A8101969A8389838D819E819C01220F60
:100AC000331F220F331F220F331F89819A81821710
:100AD000930714F380E80E940A0226960FB6F89452
:100AE000DEBF0FBECDBFCF91DF910895DF93CF93CF
:100AF0000F92CDB7DEB7898389810E94C6008091AD
:100B0000CC019091CD0101969093CD018093CC01C1
:100B10008091CC019091CD018031910511F40E941A
:100B200036070F90CF91DF910895DF93CF9300D0D8
:100B3000CDB7DEB79A83898313C0E981FA818081BA
:100B40008A3019F40E9436070BC0E981FA812081AE
:100B500089819A8101969A838983822F0E947605E2
:100B6000E981FA818081882341F70F900F90CF911E
:100B7000DF910895DF93CF93CDB7DEB76C970FB6B3
:100B8000F894DEBF0FBECDBF9A8F898F7C8F6B8F9D
:100B9000898D9A8D90936100809360008B8D9C8DE0
:100BA0009093CD018093CC01898D9A8D019700247B
:100BB000969587950794969587950794982F802DFD
:100BC000982F8B8D890F815080680E940A0280E0E7
:100BD00090E0A0E2B2E48D8B9E8BAF8BB88F2BEAB6
:100BE0003AEA4AEA5FE36D897E898F89988D0E948F
:100BF0007C2ADC01CB01898B9A8BAB8BBC8B20E0F0
:100C000030E040E85FE369897A898B899C890E949A
:100C1000802C88231CF481E0888B91C020E030E098
:100C20004FE753E469897A898B899C890E94202C3B
:100C300018160CF07BC020E030E04AE754E46D89E0
:100C40007E898F89988D0E94762BDC01CB018C8761
:100C50009D87AE87BF8720E030E04AE754E46C858B
:100C60007D858E859F850E947C2ADC01CB0188874B
:100C70009987AA87BB8720E030E040E85FE368857A
:100C800079858A859B850E94802C88232CF481E0BD
:100C900090E09F838E833FC020E03FEF4FE757E413
:100CA000688579858A859B850E94202C18164CF5CD
:100CB00020E030E040E251E46C857D858E859F85A3
:100CC0000E947C2ADC01CB01BC01CD010E94A62838
:100CD000DC01CB019F838E830FC084E690E09D836F
:100CE0008C838C819D810197F1F79D838C838E810C
:100CF0009F8101979F838E838E819F81009769F7E3
:100D000024C0688579858A859B850E94A628DC0198
:100D1000CB019F838E838E819F819B838A838A816F
:100D20009B810197F1F79B838A830FC069897A8938
:100D30008B899C890E94A628DC01CB01888B88893D
:100D4000898389818A95F1F789836C960FB6F89427
:100D5000DEBF0FBECDBFCF91DF910895DF93CF935C
:100D6000CDB7DEB72E970FB6F894DEBF0FBECDBF5E
:100D700081E00E940A0280E090E0A0E0B0E48B876E
:100D80009C87AD87BE8720E030E04AE754E46B855E
:100D90007C858D859E850E947C2ADC01CB018F831A
:100DA0009887A987BA8720E030E040E85FE36F8149
:100DB000788589859A850E94802C88232CF481E08F
:100DC00090E09E838D833FC020E03FEF4FE757E4E4
:100DD0006F81788589859A850E94202C18164CF59C
:100DE00020E030E040E251E46B857C858D859E8576
:100DF0000E947C2ADC01CB01BC01CD010E94A62807
:100E0000DC01CB019E838D830FC084E690E09C8340
:100E10008B838B819C810197F1F79C838B838D81E0
:100E20009E8101979E838D838D819E81009769F7B6
:100E300014C06F81788589859A850E94A628DC0177
:100E4000CB019E838D838D819E819A838983898145
:100E50009A810197F1F79A8389832E960FB6F894B9
:100E6000DEBF0FBECDBFCF91DF910895DF93CF934B
:100E700000D000D0CDB7DEB78091600090916100C6
:100E80009A83898389819A8101969A83898389814A
:100E90009A818330910529F089819A819C838B8383
:100EA00004C081E090E09C838B838B819C81909334
:100EB0006100809360001092CD011092CC0180916E
:100EC000CC019091CD012091600030916100BC0176
:100ED000C9010E94BA050F900F900F900F90CF910B
:100EE000DF910895DF93CF93CDB7DEB761970FB64B
:100EF000F894DEBF0FBECDBF898789858537F1F4B1
:100F0000809160009091610098878F838F81988590
:100F1000019798878F838F819885009729F08F811B
:100F20009885998B888B04C082E090E0998B888BA0
:100F300088899989909361008093600089858436BF
:100F4000F9F480916000909161009E838D838D8182
:100F50009E8101969E838D838D819E818330910534
:100F600029F08D819E819F878E8704C081E090E06B
:100F70009F878E878E859F85909361008093600008
:100F800089858237A1F58091CC019091CD019C8318
:100F90008B838B819C8101969C838B838B819C812D
:100FA00081319105D9F41092CD011092CC0180913C
:100FB0006000909161008230910529F481E090E019
:100FC0009D878C8704C082E090E09D878C878C850C
:100FD0009D85909361008093600009C08091CC0151
:100FE0009091CD0101969093CD018093CC0189859C
:100FF0008C36B9F58091CC019091CD019A8389838B
:1010000089819A8101979A83898389819A812FEFB7
:101010008F3F9207E9F480E190E09093CD018093B7
:10102000CC0180916000909161008130910529F49C
:1010300082E090E09B878A8704C081E090E09B87F4
:101040008A878A859B85909361008093600009C0A0
:101050008091CC019091CD0101979093CD01809327
:10106000CC018091CC019091CD0120916000309114
:101070006100BC01C9010E94BA0561960FB6F894DF
:10108000DEBF0FBECDBFCF91DF910895DF93CF9329
:10109000CDB7DEB780E20E947605CF91DF9108954B
:1010A000DF93CF93CDB7DEB78091CC019091CD0186
:1010B0001816190644F48CE60E9472070E9446082E
:1010C0008CE60E947207CF91DF910895DF93CF9352
:1010D00000D000D0CDB7DEB79C838B831A821982F3
:1010E00007C00E94460889819A8101969A83898364
:1010F00029813A818B819C812817390794F30F90BD
:101100000F900F900F90CF91DF910895DF93CF93C1
:1011100000D000D00F92CDB7DEB79A8389836B835E
:101120005D834C8389819A81009709F03EC0ABE5CD
:10113000B0E0EBE5F0E0808180648C938B818537B3
:1011400039F4A5E5B0E0E5E5F0E0808183608C93BB
:101150008B81863669F425E530E0A5E5B0E0E5E56C
:10116000F0E0808182608C938C918E7FF901808386
:101170008B81823641F4A5E5B0E0E5E5F0E08081C1
:101180008C7F81608C938B818C3639F4A5E5B0E03F
:10119000E5E5F0E080818C7F8C93AAE5B0E0EAE59C
:1011A000F0E0808180648C933DC0ABE5B0E0EBE57E
:1011B000F0E0808180688C938B81853739F4A5E5D8
:1011C000B0E0E5E5F0E080818C608C938B81863621
:1011D00069F425E530E0A5E5B0E0E5E5F0E08081E3
:1011E00088608C938C918B7FF90180838B81823610
:1011F00041F4A5E5B0E0E5E5F0E08081837F84601F
:101200008C938B818C3639F4A5E5B0E0E5E5F0E010
:101210008081837F8C93AAE5B0E0EAE5F0E08081ED
:1012200080688C93A1E3B0E0E1E3F0E08081282FB7
:1012300081E090E00C8002C0880F991F0A94E2F7C9
:10124000809582238C93A2E3B0E0E2E3F0E080811A
:10125000282F81E090E00C8002C0880F991F0A942B
:10126000E2F7822B8C930F900F900F900F900F90BE
:10127000CF91DF9108951F920F920FB60F92112414
:101280002F933F934F935F936F937F938F939F938E
:10129000AF93BF93EF93FF93DF93CF93CDB7DEB7B9
:1012A000AA97DEBFCDBF80E090E0A0EAB1E48FA3B3
:1012B00098A7A9A7BAA720E030E04AE754E46FA1B5
:1012C00078A589A59AA50E947C2ADC01CB018BA375
:1012D0009CA3ADA3BEA320E030E040E85FE36BA198
:1012E0007CA18DA19EA10E94802C88232CF481E0FA
:1012F00090E09AA389A33FC020E03FEF4FE757E477
:101300006BA17CA18DA19EA10E94202C18164CF5EA
:1013100020E030E040E251E46FA178A589A59AA5CC
:101320000E947C2ADC01CB01BC01CD010E94A628D1
:10133000DC01CB019AA389A30FC084E690E098A3B7
:101340008F8F8F8D98A10197F1F798A38F8F89A127
:101350009AA101979AA389A389A19AA1009769F7F5
:1013600014C06BA17CA18DA19EA10E94A628DC01C6
:10137000CB019AA389A389A19AA19E8F8D8F8D8D70
:101380009E8D0197F1F79E8F8D8F8091C80190916E
:10139000C901009709F060C181E090E09093C90114
:1013A0008093C801E9E3F0E080818E3021F410924F
:1013B000CB011092CA01E9E3F0E080818D3031F475
:1013C00084E090E09093CB018093CA01E9E3F0E0E0
:1013D00080818B3031F488E090E09093CB01809352
:1013E000CA01E9E3F0E08081873031F48CE090E0DD
:1013F0009093CB018093CA01EAE3F0E08FE0808311
:10140000EBE3F0E080EF808380E090E0A0E7B2E4DF
:10141000898F9A8FAB8FBC8F20E030E04AE754E48D
:10142000698D7A8D8B8D9C8D0E947C2ADC01CB018D
:101430008D8B9E8BAF8BB88F20E030E040E85FE370
:101440006D897E898F89988D0E94802C88232CF449
:1014500081E090E09C8B8B8B3FC020E03FEF4FE71B
:1014600057E46D897E898F89988D0E94202C1816EB
:101470004CF520E030E040E251E4698D7A8D8B8DAF
:101480009C8D0E947C2ADC01CB01BC01CD010E9415
:10149000A628DC01CB019C8B8B8B0FC084E690E0EF
:1014A0009A8B898B89899A890197F1F79A8B898B15
:1014B0008B899C8901979C8B8B8B8B899C8900974E
:1014C00069F714C06D897E898F89988D0E94A6283E
:1014D000DC01CB019C8B8B8B8B899C89988B8F87B4
:1014E0008F8598890197F1F7988B8F87E9E3F0E072
:1014F0008081803E41F48091CA019091CB0190930C
:10150000CB018093CA01E9E3F0E08081803D49F49A
:101510008091CA019091CB0101969093CB01809369
:10152000CA01E9E3F0E08081803B49F48091CA017F
:101530009091CB0102969093CB018093CA01E9E38D
:10154000F0E08081803749F48091CA019091CB010D
:1015500003969093CB018093CA01EAE3F0E080EF19
:101560008083EBE3F0E08FE08083EAE5F0E080E465
:10157000808380E090E0A0EAB1E48B879C87AD8710
:10158000BE8720E030E04AE754E46B857C858D859A
:101590009E850E947C2ADC01CB018F839887A987D6
:1015A000BA8720E030E040E85FE36F817885898585
:1015B0009A850E94802C88232CF481E090E09E8301
:1015C0008D833FC020E03FEF4FE757E46F81788580
:1015D00089859A850E94202C18164CF520E030E071
:1015E00040E251E46B857C858D859E850E947C2A36
:1015F000DC01CB01BC01CD010E94A628DC01CB019E
:101600009E838D830FC084E690E09C838B838B81C7
:101610009C810197F1F79C838B838D819E8101973B
:101620009E838D838D819E81009769F71DC06F8198
:10163000788589859A850E94A628DC01CB019E8346
:101640008D838D819E819A83898389819A81019777
:10165000F1F79A83898308C01092C9011092C801DA
:10166000EAE5F0E080E48083AA96DEBFCDBFCF91AB
:10167000DF91FF91EF91BF91AF919F918F917F91FA
:101680006F915F914F913F912F910F900FBE0F90EF
:101690001F901895DF93CF93CDB7DEB7E3970FB6C2
:1016A000F894DEBF0FBECDBF1E8E1D8E2D8D3E8DDC
:1016B0008BEC90E0AC01249FC001259F900D349FDE
:1016C000900D1124FC01E456FD4F82E790E09183D8
:1016D00080832D8D3E8D8BEC90E0FC012E9FC00110
:1016E0002F9F900D3E9F900D1124FC01E556FD4F5C
:1016F000808180788E6280832D8D3E8D8BEC90E092
:10170000AC01249FC001259F900D349F900D1124A2
:10171000FC01ED52FE4F8BE480838181887F8260E3
:1017200081832D8D3E8D8BEC90E0FC012E9FC001BE
:101730002F9F900D3E9F900D1124FC01EC52FE4F07
:1017400080818770886280832D8D3E8D8BEC90E048
:10175000AC01249FC001259F900D349F900D112452
:10176000FC01EB52FE4F83E980838181887F826098
:1017700081832D8D3E8D8BEC90E0FC012E9FC0016E
:101780002F9F900D3E9F900D1124FC01EA52FE4FB9
:1017900080818770886280832D8D3E8D8BEC90E0F8
:1017A000AC01249FC001259F900D349F900D112402
:1017B000FC01E952FE4F8AEB80838181887F826041
:1017C00081832D8D3E8D8BEC90E0FC012E9FC0011E
:1017D0002F9F900D3E9F900D1124FC01E852FE4F6B
:1017E00080818770886180832D8D3E8D8BEC90E0A9
:1017F000AC01249FC001259F900D349F900D1124B2
:10180000FC01E752FE4F83E980838181887F8260FB
:1018100081832D8D3E8D8BEC90E0FC012E9FC001CD
:101820002F9F900D3E9F900D1124FC01E652FE4F1C
:1018300080818770886180832D8D3E8D8BEC90E058
:10184000AC01249FC001259F900D349F900D112461
:10185000FC01E552FE4F8BE080838181887F8260AE
:1018600081832D8D3E8D8BEC90E0FC012E9FC0017D
:101870002F9F900D3E9F900D1124FC01E452FE4FCE
:1018800080818770886180832D8D3E8D8BEC90E008
:10189000AC01249FC001259F900D349F900D112411
:1018A000FC01E352FE4F88EB80838181887F816059
:1018B00081832D8D3E8D8BEC90E0FC012E9FC0012D
:1018C0002F9F900D3E9F900D1124FC01E252FE4F80
:1018D00080818770886180832D8D3E8D8BEC90E0B8
:1018E000AC01249FC001259F900D349F900D1124C1
:1018F000FC01E152FE4F8BE480838181887F82600E
:1019000081832D8D3E8D8BEC90E0FC012E9FC001DC
:101910002F9F900D3E9F900D1124FC01E052FE4F31
:1019200080818770806280832D8D3E8D8BEC90E06E
:10193000AC01249FC001259F900D349F900D112470
:10194000FC01EF51FE4F8BE480838181887F8260B0
:1019500081832D8D3E8D8BEC90E0FC012E9FC0018C
:101960002F9F900D3E9F900D1124FC01EE51FE4FD4
:1019700080818770806280832D8D3E8D8BEC90E01E
:10198000AC01249FC001259F900D349F900D112420
:10199000FC01ED51FE4F8BE080838181887F826066
:1019A00081832D8D3E8D8BEC90E0FC012E9FC0013C
:1019B0002F9F900D3E9F900D1124FC01EC51FE4F86
:1019C00080818770886180832D8D3E8D8BEC90E0C7
:1019D000AC01249FC001259F900D349F900D1124D0
:1019E000FC01EB51FE4F88EB80838181887F816011
:1019F00081832D8D3E8D8BEC90E0FC012E9FC001EC
:101A00002F9F900D3E9F900D1124FC01EA51FE4F37
:101A100080818770886180832D8D3E8D8BEC90E076
:101A2000AC01249FC001259F900D349F900D11247F
:101A3000FC01E951FE4F8DE580838181887F8160C3
:101A400081832D8D3E8D8BEC90E0FC012E9FC0019B
:101A50002F9F900D3E9F900D1124FC01E851FE4FE9
:101A600080818770886180832D8D3E8D8BEC90E026
:101A7000AC01249FC001259F900D349F900D11242F
:101A8000FC01E751FE4F88E880838181887F816077
:101A900081832D8D3E8D8BEC90E0FC012E9FC0014B
:101AA0002F9F900D3E9F900D1124FC01E651FE4F9B
:101AB00080818770886180832D8D3E8D8BEC90E0D6
:101AC000AC01249FC001259F900D349F900D1124DF
:101AD000FC01E551FE4F80E780838181887F836030
:101AE00081832D8D3E8D8BEC90E0FC012E9FC001FB
:101AF0002F9F900D3E9F900D1124FC01E451FE4F4D
:101B000080818770886280832D8D3E8D8BEC90E084
:101B1000AC01249FC001259F900D349F900D11248E
:101B2000FC01E351FE4F80E180838181887F8360E7
:101B300081832D8D3E8D8BEC90E0FC012E9FC001AA
:101B40002F9F900D3E9F900D1124FC01E251FE4FFE
:101B500080818770886280832D8D3E8D8BEC90E034
:101B6000AC01249FC001259F900D349F900D11243E
:101B7000FC01E151FE4F83E980838181887F82608F
:101B800081832D8D3E8D8BEC90E0FC012E9FC0015A
:101B90002F9F900D3E9F900D1124FC01E051FE4FB0
:101BA00080818770886180832D8D3E8D8BEC90E0E5
:101BB000AC01249FC001259F900D349F900D1124EE
:101BC000FC01EF50FE4F8AEB80838181887F826029
:101BD00081832D8D3E8D8BEC90E0FC012E9FC0010A
:101BE0002F9F900D3E9F900D1124FC01EE50FE4F53
:101BF00080818770886180832D8D3E8D8BEC90E095
:101C0000AC01249FC001259F900D349F900D11249D
:101C1000FC01ED50FE4F80E780838181887F8360E7
:101C200081832D8D3E8D8BEC90E0FC012E9FC001B9
:101C30002F9F900D3E9F900D1124FC01EC50FE4F04
:101C400080818770886180832D8D3E8D8BEC90E044
:101C5000AC01249FC001259F900D349F900D11244D
:101C6000FC01EB50FE4F86E180838181887F846098
:101C700081832D8D3E8D8BEC90E0FC012E9FC00169
:101C80002F9F900D3E9F900D1124FC01EA50FE4FB6
:101C900080818770886180832D8D3E8D8BEC90E0F4
:101CA000AC01249FC001259F900D349F900D1124FD
:101CB000FC01E950FE4F86E280838181887F856048
:101CC00081832D8D3E8D8BEC90E0FC012E9FC00119
:101CD0002F9F900D3E9F900D1124FC01E850FE4F68
:101CE00080818770886280832D8D3E8D8BEC90E0A3
:101CF000AC01249FC001259F900D349F900D1124AD
:101D0000FC01E750FE4F84E780838181887F8560F6
:101D100081832D8D3E8D8BEC90E0FC012E9FC001C8
:101D20002F9F900D3E9F900D1124FC01E650FE4F19
:101D300080818770886280832D8D3E8D8BEC90E052
:101D4000AC01249FC001259F900D349F900D11245C
:101D5000FC01E550FE4F86E180838181887F8460AD
:101D600081832D8D3E8D8BEC90E0FC012E9FC00178
:101D70002F9F900D3E9F900D1124FC01E450FE4FCB
:101D800080818770886180832D8D3E8D8BEC90E003
:101D9000AC01249FC001259F900D349F900D11240C
:101DA000FC01E350FE4F88E880838181887F816059
:101DB00081832D8D3E8D8BEC90E0FC012E9FC00128
:101DC0002F9F900D3E9F900D1124FC01E250FE4F7D
:101DD00080818770886180832D8D3E8D8BEC90E0B3
:101DE000AC01249FC001259F900D349F900D1124BC
:101DF000FC01E150FE4F8BE480838181887F82600B
:101E000081832D8D3E8D8BEC90E0FC012E9FC001D7
:101E10002F9F900D3E9F900D1124FC01E050FE4F2E
:101E200080818770886180832D8D3E8D8BEC90E062
:101E3000AC01249FC001259F900D349F900D11246B
:101E4000FC01EF5FFD4F8AEB80838181887F826098
:101E500081832D8D3E8D8BEC90E0FC012E9FC00187
:101E60002F9F900D3E9F900D1124FC01EE5FFD4FC2
:101E700080818770886180832D8D3E8D8BEC90E012
:101E8000AC01249FC001259F900D349F900D11241B
:101E9000FC01ED5FFD4F83E980838181887F826053
:101EA00081832D8D3E8D8BEC90E0FC012E9FC00137
:101EB0002F9F900D3E9F900D1124FC01EC5FFD4F74
:101EC00080818770886280832D8D3E8D8BEC90E0C1
:101ED000AC01249FC001259F900D349F900D1124CB
:101EE000FC01EB5FFD4F86E280838181887F856006
:101EF00081832D8D3E8D8BEC90E0FC012E9FC001E7
:101F00002F9F900D3E9F900D1124FC01EA5FFD4F25
:101F100080818770886280832D8D3E8D8BEC90E070
:101F2000AC01249FC001259F900D349F900D11247A
:101F3000FC01E95FFD4F84E780838181887F8560B4
:101F400081832D8D3E8D8BEC90E0FC012E9FC00196
:101F50002F9F900D3E9F900D1124FC01E85FFD4FD7
:101F600080818770886180832D8D3E8D8BEC90E021
:101F7000AC01249FC001259F900D349F900D11242A
:101F8000FC01E75FFD4F86E280838181887F856069
:101F900081832D8D3E8D8BEC90E0FC012E9FC00146
:101FA0002F9F900D3E9F900D1124FC01E65FFD4F89
:101FB00080818770886180832D8D3E8D8BEC90E0D1
:101FC000AC01249FC001259F900D349F900D1124DA
:101FD000FC01E55FFD4F86E180838181887F84601D
:101FE00081832D8D3E8D8BEC90E0FC012E9FC001F6
:101FF0002F9F900D3E9F900D1124FC01E45FFD4F3B
:1020000080818770886180832D8D3E8D8BEC90E080
:10201000AC01249FC001259F900D349F900D112489
:10202000FC01E35FFD4F80E780838181887F8360CF
:1020300081832D8D3E8D8BEC90E0FC012E9FC001A5
:102040002F9F900D3E9F900D1124FC01E25FFD4FEC
:1020500080818770886180832D8D3E8D8BEC90E030
:10206000AC01249FC001259F900D349F900D112439
:10207000FC01E15FFD4F86E980838181887F846078
:1020800081832D8D3E8D8BEC90E0FC012E9FC00155
:102090002F9F900D3E9F900D1124FC01E05FFD4F9E
:1020A00080818770886180832D8D3E8D8BEC90E0E0
:1020B000AC01249FC001259F900D349F900D1124E9
:1020C000FC01EF5EFD4F86E980838181887F84601B
:1020D00081832D8D3E8D8BEC90E0FC012E9FC00105
:1020E0002F9F900D3E9F900D1124FC01EE5EFD4F41
:1020F00080818770886180832D8D3E8D8BEC90E090
:10210000AC01249FC001259F900D349F900D112498
:10211000FC01ED5EFD4F86E180838181887F8460D4
:1021200081832D8D3E8D8BEC90E0FC012E9FC001B4
:102130002F9F900D3E9F900D1124FC01EC5EFD4FF2
:1021400080818770886180832D8D3E8D8BEC90E03F
:10215000AC01249FC001259F900D349F900D112448
:10216000FC01EB5EFD4F80E780838181887F836087
:1021700081832D8D3E8D8BEC90E0FC012E9FC00164
:102180002F9F900D3E9F900D1124FC01EA5EFD4FA4
:1021900080818770886180832D8D3E8D8BEC90E0EF
:1021A000AC01249FC001259F900D349F900D1124F8
:1021B000FC01E95EFD4F8AEB80838181887F82602C
:1021C00081832D8D3E8D8BEC90E0FC012E9FC00114
:1021D0002F9F900D3E9F900D1124FC01E85EFD4F56
:1021E00080818770886180832D8D3E8D8BEC90E09F
:1021F000AC01249FC001259F900D349F900D1124A8
:10220000FC01E75EFD4F80E180838181887F8360F0
:1022100081832D8D3E8D8BEC90E0FC012E9FC001C3
:102220002F9F900D3E9F900D1124FC01E65EFD4F07
:1022300080818770886180832D8D3E8D8BEC90E04E
:10224000AC01249FC001259F900D349F900D112457
:10225000FC01E55EFD4F80E780838181887F83609C
:1022600081832D8D3E8D8BEC90E0FC012E9FC00173
:102270002F9F900D3E9F900D1124FC01E45EFD4FB9
:1022800080818770886280832D8D3E8D8BEC90E0FD
:10229000AC01249FC001259F900D349F900D112407
:1022A000FC01E35EFD4F80E180838181887F836054
:1022B00081832D8D3E8D8BEC90E0FC012E9FC00123
:1022C0002F9F900D3E9F900D1124FC01E25EFD4F6B
:1022D00080818770886280832D8D3E8D8BEC90E0AD
:1022E000AC01249FC001259F900D349F900D1124B7
:1022F000FC01E15EFD4F83E980838181887F8260FC
:1023000081832D8D3E8D8BEC90E0FC012E9FC001D2
:102310002F9F900D3E9F900D1124FC01E05EFD4F1C
:1023200080818770886180832D8D3E8D8BEC90E05D
:10233000AC01249FC001259F900D349F900D112466
:10234000FC01EF5DFD4F8AEB80838181887F826095
:1023500081832D8D3E8D8BEC90E0FC012E9FC00182
:102360002F9F900D3E9F900D1124FC01EE5DFD4FBF
:1023700080818770886180832D8D3E8D8BEC90E00D
:10238000AC01249FC001259F900D349F900D112416
:10239000FC01ED5DFD4F80E780838181887F836054
:1023A00081832D8D3E8D8BEC90E0FC012E9FC00132
:1023B0002F9F900D3E9F900D1124FC01EC5DFD4F71
:1023C00080818770886180832D8D3E8D8BEC90E0BD
:1023D000AC01249FC001259F900D349F900D1124C6
:1023E000FC01EB5DFD4F86E180838181887F846005
:1023F00081832D8D3E8D8BEC90E0FC012E9FC001E2
:102400002F9F900D3E9F900D1124FC01EA5DFD4F22
:1024100080818770886180832D8D3E8D8BEC90E06C
:10242000AC01249FC001259F900D349F900D112475
:10243000FC01E95DFD4F86E280838181887F8560B4
:1024400081832D8D3E8D8BEC90E0FC012E9FC00191
:102450002F9F900D3E9F900D1124FC01E85DFD4FD4
:1024600080818770886180832D8D3E8D8BEC90E01C
:10247000AC01249FC001259F900D349F900D112425
:10248000FC01E75DFD4F86E980838181887F846060
:1024900081832D8D3E8D8BEC90E0FC012E9FC00141
:1024A0002F9F900D3E9F900D1124FC01E65DFD4F86
:1024B00080818770886180832D8D3E8D8BEC90E0CC
:1024C000AC01249FC001259F900D349F900D1124D5
:1024D000FC01E55DFD4F86E180838181887F84601A
:1024E00081832D8D3E8D8BEC90E0FC012E9FC001F1
:1024F0002F9F900D3E9F900D1124FC01E45DFD4F38
:1025000080818770886180832D8D3E8D8BEC90E07B
:10251000AC01249FC001259F900D349F900D112484
:10252000FC01E35DFD4F86E980838181887F8460C3
:1025300081832D8D3E8D8BEC90E0FC012E9FC001A0
:102540002F9F900D3E9F900D1124FC01E25DFD4FE9
:1025500080818770886180832D8D3E8D8BEC90E02B
:10256000AC01249FC001259F900D349F900D112434
:10257000FC01E15DFD4F86E980838181887F846075
:1025800081832D8D3E8D8BEC90E0FC012E9FC00150
:102590002F9F900D3E9F900D1124FC01E05DFD4F9B
:1025A000808187708863808381E090E09E8F8D8F2B
:1025B0002D8D3E8D8BEC90E0AC01249FC001259FBA
:1025C000900D349F900D1124FC01E456FD4F80E8DE
:1025D00090E0918380832D8D3E8D8BEC90E0FC010B
:1025E0002E9FC0012F9F900D3E9F900D1124FC0146
:1025F000E556FD4F80818078876380832D8D3E8DE9
:102600008BEC90E0AC01249FC001259F900D349F7E
:10261000900D1124FC01ED52FE4F88E880838181EA
:10262000887F816081832D8D3E8D8BEC90E0FC0155
:102630002E9FC0012F9F900D3E9F900D1124FC01F5
:10264000EC52FE4F80818770886280832D8D3E8D95
:102650008BEC90E0AC01249FC001259F900D349F2E
:10266000900D1124FC01EB52FE4F83E980838181A0
:10267000887F826081832D8D3E8D8BEC90E0FC0104
:102680002E9FC0012F9F900D3E9F900D1124FC01A5
:10269000EA52FE4F80818770886280832D8D3E8D47
:1026A0008BEC90E0AC01249FC001259F900D349FDE
:1026B000900D1124FC01E952FE4F8AEB8083818149
:1026C000887F826081832D8D3E8D8BEC90E0FC01B4
:1026D0002E9FC0012F9F900D3E9F900D1124FC0155
:1026E000E852FE4F80818770886180832D8D3E8DFA
:1026F0008BEC90E0AC01249FC001259F900D349F8E
:10270000900D1124FC01E752FE4F83E98083818103
:10271000887F826081832D8D3E8D8BEC90E0FC0163
:102720002E9FC0012F9F900D3E9F900D1124FC0104
:10273000E652FE4F80818770886180832D8D3E8DAB
:102740008BEC90E0AC01249FC001259F900D349F3D
:10275000900D1124FC01E552FE4F8BE480838181B2
:10276000887F826081832D8D3E8D8BEC90E0FC0113
:102770002E9FC0012F9F900D3E9F900D1124FC01B4
:10278000E452FE4F80818770886180832D8D3E8D5D
:102790008BEC90E0AC01249FC001259F900D349FED
:1027A000900D1124FC01E352FE4F8BE08083818168
:1027B000887F826081832D8D3E8D8BEC90E0FC01C3
:1027C0002E9FC0012F9F900D3E9F900D1124FC0164
:1027D000E252FE4F80818770886180832D8D3E8D0F
:1027E0008BEC90E0AC01249FC001259F900D349F9D
:1027F000900D1124FC01E152FE4F80E18083818124
:10280000887F836081832D8D3E8D8BEC90E0FC0171
:102810002E9FC0012F9F900D3E9F900D1124FC0113
:10282000E052FE4F80818770886280832D8D3E8DBF
:102830008BEC90E0AC01249FC001259F900D349F4C
:10284000900D1124FC01EF51FE4F8BE480838181B8
:10285000887F826081832D8D3E8D8BEC90E0FC0122
:102860002E9FC0012F9F900D3E9F900D1124FC01C3
:10287000EE51FE4F80818770886180832D8D3E8D63
:102880008BEC90E0AC01249FC001259F900D349FFC
:10289000900D1124FC01ED51FE4F8BE4808381816A
:1028A000887F826081832D8D3E8D8BEC90E0FC01D2
:1028B0002E9FC0012F9F900D3E9F900D1124FC0173
:1028C000EC51FE4F80818770886280832D8D3E8D14
:1028D0008BEC90E0AC01249FC001259F900D349FAC
:1028E000900D1124FC01EB51FE4F88E8808381811B
:1028F000887F816081832D8D3E8D8BEC90E0FC0183
:102900002E9FC0012F9F900D3E9F900D1124FC0122
:10291000EA51FE4F80818770886280832D8D3E8DC5
:102920008BEC90E0AC01249FC001259F900D349F5B
:10293000900D1124FC01E951FE4F83E980838181D0
:10294000887F826081832D8D3E8D8BEC90E0FC0131
:102950002E9FC0012F9F900D3E9F900D1124FC01D2
:10296000E851FE4F80818770886280832D8D3E8D77
:102970008BEC90E0AC01249FC001259F900D349F0B
:10298000900D1124FC01E751FE4F8AEB8083818179
:10299000887F826081832D8D3E8D8BEC90E0FC01E1
:1029A0002E9FC0012F9F900D3E9F900D1124FC0182
:1029B000E651FE4F80818770886180832D8D3E8D2A
:1029C0008BEC90E0AC01249FC001259F900D349FBB
:1029D000900D1124FC01E551FE4F83E98083818134
:1029E000887F826081832D8D3E8D8BEC90E0FC0191
:1029F0002E9FC0012F9F900D3E9F900D1124FC0132
:102A0000E451FE4F80818770886180832D8D3E8DDB
:102A10008BEC90E0AC01249FC001259F900D349F6A
:102A2000900D1124FC01E351FE4F8BE480838181E2
:102A3000887F826081832D8D3E8D8BEC90E0FC0140
:102A40002E9FC0012F9F900D3E9F900D1124FC01E1
:102A5000E251FE4F80818770886180832D8D3E8D8D
:102A60008BEC90E0AC01249FC001259F900D349F1A
:102A7000900D1124FC01E151FE4F8BE08083818198
:102A8000887F826081832D8D3E8D8BEC90E0FC01F0
:102A90002E9FC0012F9F900D3E9F900D1124FC0191
:102AA000E051FE4F80818770886180832D8D3E8D3F
:102AB0008BEC90E0AC01249FC001259F900D349FCA
:102AC000900D1124FC01EF50FE4F80E18083818145
:102AD000887F836081832D8D3E8D8BEC90E0FC019F
:102AE0002E9FC0012F9F900D3E9F900D1124FC0141
:102AF000EE50FE4F80818770886280832D8D3E8DE1
:102B00008BEC90E0AC01249FC001259F900D349F79
:102B1000900D1124FC01ED50FE4F80E780838181F0
:102B2000887F836081832D8D3E8D8BEC90E0FC014E
:102B30002E9FC0012F9F900D3E9F900D1124FC01F0
:102B4000EC50FE4F80818770886180832D8D3E8D93
:102B50008BEC90E0AC01249FC001259F900D349F29
:102B6000900D1124FC01EB50FE4F8AED8083818192
:102B7000887F836081832D8D3E8D8BEC90E0FC01FE
:102B80002E9FC0012F9F900D3E9F900D1124FC01A0
:102B9000EA50FE4F80818770886180832D8D3E8D45
:102BA0008BEC90E0AC01249FC001259F900D349FD9
:102BB000900D1124FC01E950FE4F86E18083818154
:102BC000887F846081832D8D3E8D8BEC90E0FC01AD
:102BD0002E9FC0012F9F900D3E9F900D1124FC0150
:102BE000E850FE4F80818770886280832D8D3E8DF6
:102BF0008BEC90E0AC01249FC001259F900D349F89
:102C0000900D1124FC01E750FE4F8AED80838181F5
:102C1000887F836081832D8D3E8D8BEC90E0FC015D
:102C20002E9FC0012F9F900D3E9F900D1124FC01FF
:102C3000E650FE4F80818770806280832D8D3E8DAF
:102C40008BEC90E0AC01249FC001259F900D349F38
:102C5000900D1124FC01E550FE4F80E780838181B7
:102C6000887F836081832D8D3E8D8BEC90E0FC010D
:102C70002E9FC0012F9F900D3E9F900D1124FC01AF
:102C8000E450FE4F80818770806280832D8D3E8D61
:102C90008BEC90E0AC01249FC001259F900D349FE8
:102CA000900D1124FC01E350FE4F80E1808381816F
:102CB000887F836081832D8D3E8D8BEC90E0FC01BD
:102CC0002E9FC0012F9F900D3E9F900D1124FC015F
:102CD000E250FE4F80818770886280832D8D3E8D0B
:102CE0008BEC90E0AC01249FC001259F900D349F98
:102CF000900D1124FC01E150FE4F83E98083818116
:102D0000887F826081832D8D3E8D8BEC90E0FC016D
:102D10002E9FC0012F9F900D3E9F900D1124FC010E
:102D2000E050FE4F80818770886280832D8D3E8DBC
:102D30008BEC90E0AC01249FC001259F900D349F47
:102D4000900D1124FC01EF5FFD4F80E780838181AE
:102D5000887F836081832D8D3E8D8BEC90E0FC011C
:102D60002E9FC0012F9F900D3E9F900D1124FC01BE
:102D7000EE5FFD4F80818770886280832D8D3E8D50
:102D80008BEC90E0AC01249FC001259F900D349FF7
:102D9000900D1124FC01ED5FFD4F80E18083818166
:102DA000887F836081832D8D3E8D8BEC90E0FC01CC
:102DB0002E9FC0012F9F900D3E9F900D1124FC016E
:102DC000EC5FFD4F80818770886180832D8D3E8D03
:102DD0008BEC90E0AC01249FC001259F900D349FA7
:102DE000900D1124FC01EB5FFD4F8AEB8083818104
:102DF000887F826081832D8D3E8D8BEC90E0FC017D
:102E00002E9FC0012F9F900D3E9F900D1124FC011D
:102E1000EA5FFD4F80818770886180832D8D3E8DB4
:102E20008BEC90E0AC01249FC001259F900D349F56
:102E3000900D1124FC01E95FFD4F83E980838181BE
:102E4000887F826081832D8D3E8D8BEC90E0FC012C
:102E50002E9FC0012F9F900D3E9F900D1124FC01CD
:102E6000E85FFD4F80818770886280832D8D3E8D65
:102E70008BEC90E0AC01249FC001259F900D349F06
:102E8000900D1124FC01E75FFD4F8BE4808381816D
:102E9000887F826081832D8D3E8D8BEC90E0FC01DC
:102EA0002E9FC0012F9F900D3E9F900D1124FC017D
:102EB000E65FFD4F80818770886280832D8D3E8D17
:102EC0008BEC90E0AC01249FC001259F900D349FB6
:102ED000900D1124FC01E55FFD4F8BE08083818123
:102EE000887F826081832D8D3E8D8BEC90E0FC018C
:102EF0002E9FC0012F9F900D3E9F900D1124FC012D
:102F0000E45FFD4F80818770886180832D8D3E8DC9
:102F10008BEC90E0AC01249FC001259F900D349F65
:102F2000900D1124FC01E35FFD4F8DEE80838181C4
:102F3000887F816081832D8D3E8D8BEC90E0FC013C
:102F40002E9FC0012F9F900D3E9F900D1124FC01DC
:102F5000E25FFD4F80818770886180832D8D3E8D7B
:102F60008BEC90E0AC01249FC001259F900D349F15
:102F7000900D1124FC01E15FFD4F8BE08083818186
:102F8000887F826081832D8D3E8D8BEC90E0FC01EB
:102F90002E9FC0012F9F900D3E9F900D1124FC018C
:102FA000E05FFD4F80818770886180832D8D3E8D2D
:102FB0008BEC90E0AC01249FC001259F900D349FC5
:102FC000900D1124FC01EF5EFD4F83E98083818128
:102FD000887F826081832D8D3E8D8BEC90E0FC019B
:102FE0002E9FC0012F9F900D3E9F900D1124FC013C
:102FF000EE5EFD4F80818770886180832D8D3E8DD0
:103000008BEC90E0AC01249FC001259F900D349F74
:10301000900D1124FC01ED5EFD4F8BE480838181D6
:10302000887F826081832D8D3E8D8BEC90E0FC014A
:103030002E9FC0012F9F900D3E9F900D1124FC01EB
:10304000EC5EFD4F80818770886280832D8D3E8D80
:103050008BEC90E0AC01249FC001259F900D349F24
:10306000900D1124FC01EB5EFD4F88EB8083818184
:10307000887F816081832D8D3E8D8BEC90E0FC01FB
:103080002E9FC0012F9F900D3E9F900D1124FC019B
:10309000EA5EFD4F80818770886180832D8D3E8D33
:1030A0008BEC90E0AC01249FC001259F900D349FD4
:1030B000900D1124FC01E95EFD4F8BE0808381813E
:1030C000887F826081832D8D3E8D8BEC90E0FC01AA
:1030D0002E9FC0012F9F900D3E9F900D1124FC014B
:1030E000E85EFD4F80818770886180832D8D3E8DE5
:1030F0008BEC90E0AC01249FC001259F900D349F84
:10310000900D1124FC01E75EFD4F8BE080838181EF
:10311000887F826081832D8D3E8D8BEC90E0FC0159
:103120002E9FC0012F9F900D3E9F900D1124FC01FA
:10313000E65EFD4F80818770806580832D8D3E8D9A
:103140008BEC90E0AC01249FC001259F900D349F33
:10315000900D1124FC01E55EFD4F8BE4808381819D
:10316000887F826081832D8D3E8D8BEC90E0FC0109
:103170002E9FC0012F9F900D3E9F900D1124FC01AA
:10318000E45EFD4F80818770886380832D8D3E8D46
:103190008BEC90E0AC01249FC001259F900D349FE3
:1031A000900D1124FC01E35EFD4F80E1808381815D
:1031B000887F836081832D8D3E8D8BEC90E0FC01B8
:1031C0002E9FC0012F9F900D3E9F900D1124FC015A
:1031D000E25EFD4F80818770886180832D8D3E8DFA
:1031E0008BEC90E0AC01249FC001259F900D349F93
:1031F000900D1124FC01E15EFD4F80E78083818109
:10320000887F836081832D8D3E8D8BEC90E0FC0167
:103210002E9FC0012F9F900D3E9F900D1124FC0109
:10322000E05EFD4F80818770886280832D8D3E8DAA
:103230008BEC90E0AC01249FC001259F900D349F42
:10324000900D1124FC01EF5DFD4F80E180838181B1
:10325000887F836081832D8D3E8D8BEC90E0FC0117
:103260002E9FC0012F9F900D3E9F900D1124FC01B9
:10327000EE5DFD4F80818770886180832D8D3E8D4E
:103280008BEC90E0AC01249FC001259F900D349FF2
:10329000900D1124FC01ED5DFD4F80E7808381815D
:1032A000887F836081832D8D3E8D8BEC90E0FC01C7
:1032B0002E9FC0012F9F900D3E9F900D1124FC0169
:1032C000EC5DFD4F80818770886180832D8D3E8D00
:1032D0008BEC90E0AC01249FC001259F900D349FA2
:1032E000900D1124FC01EB5DFD4F80E18083818115
:1032F000887F836081832D8D3E8D8BEC90E0FC0177
:103300002E9FC0012F9F900D3E9F900D1124FC0118
:10331000EA5DFD4F80818770886280832D8D3E8DB0
:103320008BEC90E0AC01249FC001259F900D349F51
:10333000900D1124FC01E95DFD4F8BE480838181B8
:10334000887F826081832D8D3E8D8BEC90E0FC0127
:103350002E9FC0012F9F900D3E9F900D1124FC01C8
:10336000E85DFD4F80818770886180832D8D3E8D63
:103370008BEC90E0AC01249FC001259F900D349F01
:10338000900D1124FC01E75DFD4F8AEB8083818164
:10339000887F826081832D8D3E8D8BEC90E0FC01D7
:1033A0002E9FC0012F9F900D3E9F900D1124FC0178
:1033B000E65DFD4F80818770886180832D8D3E8D15
:1033C0008BEC90E0AC01249FC001259F900D349FB1
:1033D000900D1124FC01E55DFD4F8AEB8083818116
:1033E000887F826081832D8D3E8D8BEC90E0FC0187
:1033F0002E9FC0012F9F900D3E9F900D1124FC0128
:10340000E45DFD4F80818770886280832D8D3E8DC5
:103410008BEC90E0AC01249FC001259F900D349F60
:10342000900D1124FC01E35DFD4F83E980838181D0
:10343000887F826081832D8D3E8D8BEC90E0FC0136
:103440002E9FC0012F9F900D3E9F900D1124FC01D7
:10345000E25DFD4F80818770886180832D8D3E8D78
:103460008BEC90E0AC01249FC001259F900D349F10
:10347000900D1124FC01E15DFD4F8BE4808381817F
:10348000887F826081832D8D3E8D8BEC90E0FC01E6
:103490002E9FC0012F9F900D3E9F900D1124FC0187
:1034A000E05DFD4F80818770886180832D8D3E8D2A
:1034B0008BEC90E0AC01249FC001259F900D349FC0
:1034C000900D1124FC01EF5CFD4F8AE28083818125
:1034D000887F826081832D8D3E8D8BEC90E0FC0196
:1034E0002E9FC0012F9F900D3E9F900D1124FC0137
:1034F000EE5CFD4F80818770886280832D8D3E8DCC
:103500008BEC90E0AC01249FC001259F900D349F6F
:10351000900D1124FC01ED5CFD4F8BE480838181D3
:10352000887F826081832D8D3E8D8BEC90E0FC0145
:103530002E9FC0012F9F900D3E9F900D1124FC01E6
:10354000EC5CFD4F80818770886180832D8D3E8D7E
:103550008BEC90E0AC01249FC001259F900D349F1F
:10356000900D1124FC01EB5CFD4F83E98083818188
:10357000887F826081832D8D3E8D8BEC90E0FC01F5
:103580002E9FC0012F9F900D3E9F900D1124FC0196
:10359000EA5CFD4F80818770886180832D8D3E8D30
:1035A0008BEC90E0AC01249FC001259F900D349FCF
:1035B000900D1124FC01E95CFD4F8AEB8083818131
:1035C000887F826081832D8D3E8D8BEC90E0FC01A5
:1035D0002E9FC0012F9F900D3E9F900D1124FC0146
:1035E000E85CFD4F80818770886280832D8D3E8DE1
:1035F0008BEC90E0AC01249FC001259F900D349F7F
:10360000900D1124FC01E75CFD4F83E980838181EB
:10361000887F826081832D8D3E8D8BEC90E0FC0154
:103620002E9FC0012F9F900D3E9F900D1124FC01F5
:10363000E65CFD4F80818770886180832D8D3E8D93
:103640008BEC90E0AC01249FC001259F900D349F2E
:10365000900D1124FC01E55CFD4F8BE4808381819A
:10366000887F826081832D8D3E8D8BEC90E0FC0104
:103670002E9FC0012F9F900D3E9F900D1124FC01A5
:10368000E45CFD4F80818770886180832D8D3E8D45
:103690008BEC90E0AC01249FC001259F900D349FDE
:1036A000900D1124FC01E35CFD4F8BE08083818150
:1036B000887F826081832D8D3E8D8BEC90E0FC01B4
:1036C0002E9FC0012F9F900D3E9F900D1124FC0155
:1036D000E25CFD4F80818770886280832D8D3E8DF6
:1036E0008BEC90E0AC01249FC001259F900D349F8E
:1036F000900D1124FC01E15CFD4F8BE480838181FE
:10370000887F826081832D8D3E8D8BEC90E0FC0163
:103710002E9FC0012F9F900D3E9F900D1124FC0104
:10372000E05CFD4F80818770886280832D8D3E8DA7
:103730008BEC90E0AC01249FC001259F900D349F3D
:10374000900D1124FC01EF5BFD4F8BE080838181A4
:10375000887F826081832D8D3E8D8BEC90E0FC0113
:103760002E9FC0012F9F900D3E9F900D1124FC01B4
:10377000EE5BFD4F80818770806A808382E090E0FD
:103780009E8F8D8F2D8D3E8D8BEC90E0AC01249F14
:10379000C001259F900D349F900D1124FC01E4562B
:1037A000FD4F8FE890E0918380832D8D3E8D8BECD3
:1037B00090E0FC012E9FC0012F9F900D3E9F900D29
:1037C0001124FC01E556FD4F808180788D62808355
:1037D0002D8D3E8D8BEC90E0AC01249FC001259F88
:1037E000900D349F900D1124FC01ED52FE4F88E89E
:1037F00080838181887F816081832D8D3E8D8BECDC
:1038000090E0FC012E9FC0012F9F900D3E9F900DD8
:103810001124FC01EC52FE4F808187708862808306
:103820002D8D3E8D8BEC90E0AC01249FC001259F37
:10383000900D349F900D1124FC01EB52FE4F88EB4C
:1038400080838181887F816081832D8D3E8D8BEC8B
:1038500090E0FC012E9FC0012F9F900D3E9F900D88
:103860001124FC01EA52FE4F8081877088628083B8
:103870002D8D3E8D8BEC90E0AC01249FC001259FE7
:10388000900D349F900D1124FC01E952FE4F80E110
:1038900080838181887F836081832D8D3E8D8BEC39
:1038A00090E0FC012E9FC0012F9F900D3E9F900D38
:1038B0001124FC01E852FE4F80818770886280836A
:1038C0002D8D3E8D8BEC90E0AC01249FC001259F97
:1038D000900D349F900D1124FC01E752FE4F83E9B7
:1038E00080838181887F826081832D8D3E8D8BECEA
:1038F00090E0FC012E9FC0012F9F900D3E9F900DE8
:103900001124FC01E652FE4F80818770886380831A
:103910002D8D3E8D8BEC90E0AC01249FC001259F46
:10392000900D349F900D1124FC01E552FE4F83E968
:1039300080838181887F826081832D8D3E8D8BEC99
:1039400090E0FC012E9FC0012F9F900D3E9F900D97
:103950001124FC01E452FE4F8081877080618083D6
:103960002D8D3E8D8BEC90E0AC01249FC001259FF6
:10397000900D349F900D1124FC01E352FE4F8AEB11
:1039800080838181887F826081832D8D3E8D8BEC49
:1039900090E0FC012E9FC0012F9F900D3E9F900D47
:1039A0001124FC01E252FE4F808187708061808388
:1039B0002D8D3E8D8BEC90E0AC01249FC001259FA6
:1039C000900D349F900D1124FC01E152FE4F80E1D7
:1039D00080838181887F836081832D8D3E8D8BECF8
:1039E00090E0FC012E9FC0012F9F900D3E9F900DF7
:1039F0001124FC01E052FE4F808187708062808339
:103A00002D8D3E8D8BEC90E0AC01249FC001259F55
:103A1000900D349F900D1124FC01EF51FE4F80E773
:103A200080838181887F836081832D8D3E8D8BECA7
:103A300090E0FC012E9FC0012F9F900D3E9F900DA6
:103A40001124FC01EE51FE4F8081877080628083DB
:103A50002D8D3E8D8BEC90E0AC01249FC001259F05
:103A6000900D349F900D1124FC01ED51FE4F84EA1E
:103A700080838181887F836081832D8D3E8D8BEC57
:103A800090E0FC012E9FC0012F9F900D3E9F900D56
:103A90001124FC01EC51FE4F808187708861808386
:103AA0002D8D3E8D8BEC90E0AC01249FC001259FB5
:103AB000900D349F900D1124FC01EB51FE4F80E7D7
:103AC00080838181887F836081832D8D3E8D8BEC07
:103AD00090E0FC012E9FC0012F9F900D3E9F900D06
:103AE0001124FC01EA51FE4F808187708862808337
:103AF0002D8D3E8D8BEC90E0AC01249FC001259F65
:103B0000900D349F900D1124FC01E951FE4F80E18E
:103B100080838181887F836081832D8D3E8D8BECB6
:103B200090E0FC012E9FC0012F9F900D3E9F900DB5
:103B30001124FC01E851FE4F8081877088628083E8
:103B40002D8D3E8D8BEC90E0AC01249FC001259F14
:103B5000900D349F900D1124FC01E751FE4F8AEB2C
:103B600080838181887F826081832D8D3E8D8BEC67
:103B700090E0FC012E9FC0012F9F900D3E9F900D65
:103B80001124FC01E651FE4F808187708863808399
:103B90002D8D3E8D8BEC90E0AC01249FC001259FC4
:103BA000900D349F900D1124FC01E551FE4F8AEBDE
:103BB00080838181887F826081832D8D3E8D8BEC17
:103BC00090E0FC012E9FC0012F9F900D3E9F900D15
:103BD0001124FC01E451FE4F80818770886180834D
:103BE0002D8D3E8D8BEC90E0AC01249FC001259F74
:103BF000900D349F900D1124FC01E351FE4F83E999
:103C000080838181887F826081832D8D3E8D8BECC6
:103C100090E0FC012E9FC0012F9F900D3E9F900DC4
:103C20001124FC01E251FE4F8081877088618083FE
:103C30002D8D3E8D8BEC90E0AC01249FC001259F23
:103C4000900D349F900D1124FC01E151FE4F8AEB41
:103C500080838181887F826081832D8D3E8D8BEC76
:103C600090E0FC012E9FC0012F9F900D3E9F900D74
:103C70001124FC01E051FE4F8081877088638083AE
:103C80002D8D3E8D8BEC90E0AC01249FC001259FD3
:103C9000900D349F900D1124FC01EF50FE4F8BE4EA
:103CA00080838181887F826081832D8D3E8D8BEC26
:103CB00090E0FC012E9FC0012F9F900D3E9F900D24
:103CC0001124FC01EE50FE4F808187708862808352
:103CD0002D8D3E8D8BEC90E0AC01249FC001259F83
:103CE000900D349F900D1124FC01ED50FE4F83E99F
:103CF00080838181887F826081832D8D3E8D8BECD6
:103D000090E0FC012E9FC0012F9F900D3E9F900DD3
:103D10001124FC01EC50FE4F808187708862808303
:103D20002D8D3E8D8BEC90E0AC01249FC001259F32
:103D3000900D349F900D1124FC01EB50FE4F8AEB47
:103D400080838181887F826081832D8D3E8D8BEC85
:103D500090E0FC012E9FC0012F9F900D3E9F900D83
:103D60001124FC01EA50FE4F8081877088638083B4
:103D70002D8D3E8D8BEC90E0AC01249FC001259FE2
:103D8000900D349F900D1124FC01E950FE4F83E902
:103D900080838181887F826081832D8D3E8D8BEC35
:103DA00090E0FC012E9FC0012F9F900D3E9F900D33
:103DB0001124FC01E850FE4F808187708061808370
:103DC0002D8D3E8D8BEC90E0AC01249FC001259F92
:103DD000900D349F900D1124FC01E750FE4F8AEBAB
:103DE00080838181887F826081832D8D3E8D8BECE5
:103DF00090E0FC012E9FC0012F9F900D3E9F900DE3
:103E00001124FC01E650FE4F808187708062808320
:103E10002D8D3E8D8BEC90E0AC01249FC001259F41
:103E2000900D349F900D1124FC01E550FE4F80E170
:103E300080838181887F836081832D8D3E8D8BEC93
:103E400090E0FC012E9FC0012F9F900D3E9F900D92
:103E50001124FC01E450FE4F8081877080628083D2
:103E60002D8D3E8D8BEC90E0AC01249FC001259FF1
:103E7000900D349F900D1124FC01E350FE4F8EE312
:103E800080838181887F836081832D8D3E8D8BEC43
:103E900090E0FC012E9FC0012F9F900D3E9F900D42
:103EA0001124FC01E250FE4F80818770886180837D
:103EB0002D8D3E8D8BEC90E0AC01249FC001259FA1
:103EC000900D349F900D1124FC01E150FE4F80E1D4
:103ED00080838181887F836081832D8D3E8D8BECF3
:103EE00090E0FC012E9FC0012F9F900D3E9F900DF2
:103EF0001124FC01E050FE4F80818770886280832E
:103F00002D8D3E8D8BEC90E0AC01249FC001259F50
:103F1000900D349F900D1124FC01EF5FFD4F8AEB53
:103F200080838181887F826081832D8D3E8D8BECA3
:103F300090E0FC012E9FC0012F9F900D3E9F900DA1
:103F40001124FC01EE5FFD4F8081877088628083C1
:103F50002D8D3E8D8BEC90E0AC01249FC001259F00
:103F6000900D349F900D1124FC01ED5FFD4F83E90E
:103F700080838181887F826081832D8D3E8D8BEC53
:103F800090E0FC012E9FC0012F9F900D3E9F900D51
:103F90001124FC01EC5FFD4F808187708863808372
:103FA0002D8D3E8D8BEC90E0AC01249FC001259FB0
:103FB000900D349F900D1124FC01EB5FFD4F8AEBB7
:103FC00080838181887F826081832D8D3E8D8BEC03
:103FD00090E0FC012E9FC0012F9F900D3E9F900D01
:103FE0001124FC01EA5FFD4F808187708861808326
:103FF0002D8D3E8D8BEC90E0AC01249FC001259F60
:10400000900D349F900D1124FC01E95FFD4F83E971
:1040100080838181887F826081832D8D3E8D8BECB2
:1040200090E0FC012E9FC0012F9F900D3E9F900DB0
:104030001124FC01E85FFD4F8081877088618083D7
:104040002D8D3E8D8BEC90E0AC01249FC001259F0F
:10405000900D349F900D1124FC01E75FFD4F8BE420
:1040600080838181887F826081832D8D3E8D8BEC62
:1040700090E0FC012E9FC0012F9F900D3E9F900D60
:104080001124FC01E65FFD4F808187708062808390
:104090002D8D3E8D8BEC90E0AC01249FC001259FBF
:1040A000900D349F900D1124FC01E55FFD4F88E8D1
:1040B00080838181887F816081832D8D3E8D8BEC13
:1040C00090E0FC012E9FC0012F9F900D3E9F900D10
:1040D0001124FC01E45FFD4F80818770886280833A
:1040E0002D8D3E8D8BEC90E0AC01249FC001259F6F
:1040F000900D349F900D1124FC01E35FFD4F88EB80
:1041000080838181887F816081832D8D3E8D8BECC2
:1041100090E0FC012E9FC0012F9F900D3E9F900DBF
:104120001124FC01E25FFD4F8081877088628083EB
:104130002D8D3E8D8BEC90E0AC01249FC001259F1E
:10414000900D349F900D1124FC01E15FFD4F80E143
:1041500080838181887F836081832D8D3E8D8BEC70
:1041600090E0FC012E9FC0012F9F900D3E9F900D6F
:104170001124FC01E05FFD4F80818770886280839D
:104180002D8D3E8D8BEC90E0AC01249FC001259FCE
:10419000900D349F900D1124FC01EF5EFD4F83E9DB
:1041A00080838181887F826081832D8D3E8D8BEC21
:1041B00090E0FC012E9FC0012F9F900D3E9F900D1F
:1041C0001124FC01EE5EFD4F80818770886380833F
:1041D0002D8D3E8D8BEC90E0AC01249FC001259F7E
:1041E000900D349F900D1124FC01ED5EFD4F83E98D
:1041F00080838181887F826081832D8D3E8D8BECD1
:1042000090E0FC012E9FC0012F9F900D3E9F900DCE
:104210001124FC01EC5EFD4F8081877080618083FA
:104220002D8D3E8D8BEC90E0AC01249FC001259F2D
:10423000900D349F900D1124FC01EB5EFD4F8AEB35
:1042400080838181887F826081832D8D3E8D8BEC80
:1042500090E0FC012E9FC0012F9F900D3E9F900D7E
:104260001124FC01EA5EFD4F8081877080618083AC
:104270002D8D3E8D8BEC90E0AC01249FC001259FDD
:10428000900D349F900D1124FC01E95EFD4F80E1FB
:1042900080838181887F836081832D8D3E8D8BEC2F
:1042A00090E0FC012E9FC0012F9F900D3E9F900D2E
:1042B0001124FC01E85EFD4F80818770806280835D
:1042C0002D8D3E8D8BEC90E0AC01249FC001259F8D
:1042D000900D349F900D1124FC01E75EFD4F80E7A7
:1042E00080838181887F836081832D8D3E8D8BECDF
:1042F00090E0FC012E9FC0012F9F900D3E9F900DDE
:104300001124FC01E65EFD4F80818770806280830E
:104310002D8D3E8D8BEC90E0AC01249FC001259F3C
:10432000900D349F900D1124FC01E55EFD4F84EA51
:1043300080838181887F836081832D8D3E8D8BEC8E
:1043400090E0FC012E9FC0012F9F900D3E9F900D8D
:104350001124FC01E45EFD4F8081877088618083B9
:104360002D8D3E8D8BEC90E0AC01249FC001259FEC
:10437000900D349F900D1124FC01E35EFD4F80E70A
:1043800080838181887F836081832D8D3E8D8BEC3E
:1043900090E0FC012E9FC0012F9F900D3E9F900D3D
:1043A0001124FC01E25EFD4F80818770886280836A
:1043B0002D8D3E8D8BEC90E0AC01249FC001259F9C
:1043C000900D349F900D1124FC01E15EFD4F80E1C2
:1043D00080838181887F836081832D8D3E8D8BECEE
:1043E00090E0FC012E9FC0012F9F900D3E9F900DED
:1043F0001124FC01E05EFD4F80818770886280831C
:104400002D8D3E8D8BEC90E0AC01249FC001259F4B
:10441000900D349F900D1124FC01EF5DFD4F8AEB50
:1044200080838181887F826081832D8D3E8D8BEC9E
:1044300090E0FC012E9FC0012F9F900D3E9F900D9C
:104440001124FC01EE5DFD4F8081877088638083BD
:104450002D8D3E8D8BEC90E0AC01249FC001259FFB
:10446000900D349F900D1124FC01ED5DFD4F8AEB02
:1044700080838181887F826081832D8D3E8D8BEC4E
:1044800090E0FC012E9FC0012F9F900D3E9F900D4C
:104490001124FC01EC5DFD4F808187708861808371
:1044A0002D8D3E8D8BEC90E0AC01249FC001259FAB
:1044B000900D349F900D1124FC01EB5DFD4F83E9BD
:1044C00080838181887F826081832D8D3E8D8BECFE
:1044D00090E0FC012E9FC0012F9F900D3E9F900DFC
:1044E0001124FC01EA5DFD4F808187708861808323
:1044F0002D8D3E8D8BEC90E0AC01249FC001259F5B
:10450000900D349F900D1124FC01E95DFD4F8AEB65
:1045100080838181887F826081832D8D3E8D8BECAD
:1045200090E0FC012E9FC0012F9F900D3E9F900DAB
:104530001124FC01E85DFD4F8081877088628083D3
:104540002D8D3E8D8BEC90E0AC01249FC001259F0A
:10455000900D349F900D1124FC01E75DFD4F83E920
:1045600080838181887F826081832D8D3E8D8BEC5D
:1045700090E0FC012E9FC0012F9F900D3E9F900D5B
:104580001124FC01E65DFD4F808187708862808385
:104590002D8D3E8D8BEC90E0AC01249FC001259FBA
:1045A000900D349F900D1124FC01E55DFD4F8BE4CF
:1045B00080838181887F826081832D8D3E8D8BEC0D
:1045C00090E0FC012E9FC0012F9F900D3E9F900D0B
:1045D0001124FC01E45DFD4F808187708862808337
:1045E0002D8D3E8D8BEC90E0AC01249FC001259F6A
:1045F000900D349F900D1124FC01E35DFD4F8BE085
:1046000080838181887F826081832D8D3E8D8BECBC
:1046100090E0FC012E9FC0012F9F900D3E9F900DBA
:104620001124FC01E25DFD4F8081877080648083EE
:1046300083E090E09E8F8D8F2D8D3E8D8BEC90E0F2
:10464000AC01249FC001259F900D349F900D112433
:10465000FC01E456FD4F89E990E0918380832D8D24
:104660003E8D8BEC90E0FC012E9FC0012F9F900DA2
:104670003E9F900D1124FC01E556FD4F808180780E
:1046800084638083AE01415E5F4F58AB4FA782E6E3
:1046900090E09AAB89AB90E19BABE9A9FAA90080C5
:1046A00049A95AA94F5F5F4F5AAB49ABEFA5F8A98B
:1046B00000824FA558A94F5F5F4F58AB4FA75BA92A
:1046C00051505BAB8BA9882341F78091CE01807F4D
:1046D0008093CE018091CE018F708093CE01809126
:1046E000CF018E7F8093CF018091CF018170809325
:1046F000CF018091D0018E7F8093D0018091D00135
:1047000081708093D0018091D1018E7F8093D101FF
:104710008091D101817C8093D1018091D1018F73EF
:104720008093D1018091D201807F8093D201EAE30E
:10473000F0E080EF8083EBE3F0E08FE08083A2E3A2
:10474000B0E0E2E3F0E0808188708C93A1E3B0E018
:10475000E1E3F0E0808188608C93E9E5F0E081E4BA
:10476000808342E050E062E680E090E00E948608AC
:104770000E94ED02CE014F9662E070E00E943B0580
:1047800084EA90E00E9495050E94360780EB90E055
:104790000E9495056FE070E082E090E00E94BA050B
:1047A00080E00E94760580E090E0AAE7B4E4898F7B
:1047B0009A8FAB8FBC8F20E030E04AE754E4698DDC
:1047C0007A8D8B8D9C8D0E947C2ADC01CB018D8B98
:1047D0009E8BAF8BB88F20E030E040E85FE36D89BF
:1047E0007E898F89988D0E94802C88232CF481E00B
:1047F00090E09C8B8B8B3FC020E03FEF4FE757E46E
:104800006D897E898F89988D0E94202C18164CF511
:1048100020E030E040E251E4698D7A8D8B8D9C8DF3
:104820000E947C2ADC01CB01BC01CD010E94A6289C
:10483000DC01CB019C8B8B8B0FC084E690E09A8BC4
:10484000898B89899A890197F1F79A8B898B8B8952
:104850009C8901979C8B8B8B8B899C89009769F72E
:1048600014C06D897E898F89988D0E94A628DC01ED
:10487000CB019C8B8B8B8B899C89988B8F878F85A9
:1048800098890197F1F7988B8F870E94AE068091E7
:104890009C0290919D020E9495050E94360780918E
:1048A0006703909168030E9495056FE070E081E0D6
:1048B00090E00E94BA0580E00E947605789480918D
:1048C000C8019091C9010097D1F3F8948091CA0171
:1048D0009091CB01009709F07FC00E94AE0687EB54
:1048E00090E00E9495050E94460880E00E947605AF
:1048F00080E090E0AAE7B4E48B879C87AD87BE8711
:1049000020E030E04AE754E46B857C858D859E8508
:104910000E947C2ADC01CB018F839887A987BA8704
:1049200020E030E040E85FE36F81788589859A85F3
:104930000E94802C88232CF481E090E09E838D835C
:104940003FC020E03FEF4FE757E46F8178858985CE
:104950009A850E94202C18164CF520E030E040E2A9
:1049600051E46B857C858D859E850E947C2ADC01C7
:10497000CB01BC01CD010E94A628DC01CB019E83A6
:104980008D830FC084E690E09C838B838B819C8118
:104990000197F1F79C838B838D819E8101979E8384
:1049A0008D838D819E81009769F714C06F81788512
:1049B00089859A850E94A628DC01CB019E838D8380
:1049C0008D819E819A83898389819A810197F1F7EC
:1049D0009A8389830E947F258091CA019091CB019F
:1049E0008130910559F58091CE018F708F5F8F7066
:1049F000982F9F708091CE01807F892B8093CE016C
:104A00008091CE018F70882F90E001968170907018
:104A1000882319F00E947F2511C06FE070E081E0CB
:104A200090E00E94BA050E9446086FE070E082E0C4
:104A300090E00E94BA0580E00E9476058091CA014C
:104A40009091CB018230910559F58091CE018F7004
:104A5000815F8F70982F9F708091CE01807F892B0E
:104A60008093CE018091CE018F70882F90E00196C7
:104A700081709070009719F40E947F2511C06FE03B
:104A800070E082E090E00E94BA050E9446086FE064
:104A900070E081E090E00E94BA0580E00E94760517
:104AA0008091CA019091CB0185309105F9F48091F4
:104AB00060009091610001976FE070E00E94BA057C
:104AC00081E00E9476058091CE018F70882F90E062
:104AD0000E948C26809160009091610001976FE0A8
:104AE00070E00E94BA0580E00E947605789480917B
:104AF000C8019091C90181309105C9F3E0CEDF93DF
:104B0000CF93CDB7DEB70E94AE068091CE018F70F5
:104B1000882F90E0019681709070882309F441C03D
:104B200060E070E081E090E00E94BA058091CE01E3
:104B30008F70282F30E08BEC90E0AC01249FC001F7
:104B4000259F900D349F900D1124FC01E456FD4FDC
:104B5000808191810E9495050E9436078091CE0147
:104B60008F70882F90E09C012F5F3F4F8BEC90E07F
:104B7000AC01249FC001259F900D349F900D1124FE
:104B8000FC01E456FD4F808191810E9495056FE004
:104B900070E081E090E00E94BA0580E00E94760516
:104BA00040C060E070E081E090E00E94BA05809132
:104BB000CE018F70882F90E09C01215030408BEC0B
:104BC00090E0AC01249FC001259F900D349F900D73
:104BD0001124FC01E456FD4F808191810E949505CE
:104BE0000E9436078091CE018F70282F30E08BEC29
:104BF00090E0AC01249FC001259F900D349F900D43
:104C00001124FC01E456FD4F808191810E9495059D
:104C10006FE070E082E090E00E94BA0580E00E94C0
:104C20007605CF91DF910895DF93CF9300D000D028
:104C3000CDB7DEB769837A838B839C8320E030E035
:104C400040E852E469817A818B819C810E947C2AB0
:104C5000DC01CB019C01AD0160E074E284E79AE4E1
:104C60000E94762BDC01CB0120E030E040E05FE3E6
:104C7000BC01CD010E944F2ADC01CB01BC01CD015A
:104C80000E940E2DDC01CB010F900F900F900F9022
:104C9000CF91DF910895DF93CF9300D000D0CDB7AF
:104CA000DEB769837A838B839C8320E030E040E821
:104CB00052E469817A818B819C810E947C2ADC018B
:104CC000CB019C01AD0160E074E284E79AE40E94AC
:104CD000762BDC01CB0120E030E04FE753E4BC0150
:104CE000CD010E94762BDC01CB0120E030E040E0DA
:104CF0005FE3BC01CD010E944F2ADC01CB01BC0166
:104D0000CD010E940E2DDC01CB010F900F900F9072
:104D10000F90CF91DF910895DF93CF93CDB7DEB79A
:104D200064970FB6F894DEBF0FBECDBF9C8B8B8B04
:104D30008091D1018F738093D1018091D201807FC6
:104D40008093D201E3E5F0E083E0808378941A8ACF
:104D5000198A188A1F86D0C18F8598899A8B898B6A
:104D60008091CE018F70482F50E08F8598899C01EB
:104D7000220F331F8BEC90E0BC01469FC001479F80
:104D8000900D569F900D1124820F931FFC01ED5240
:104D9000FE4F80812181922F9770CC01A0E0B0E07E
:104DA000BC01CD010E94622DDC01CB01BC01CD0113
:104DB0000E9414269C01822F8F77982F990F809143
:104DC000CF018170892B8093CF01822F881F882784
:104DD000881F982F91708091D0018E7F892B8093AE
:104DE000D001832F8F77982F990F8091D0018170F8
:104DF000892B8093D001832F881F8827881F982FA5
:104E000091708091D1018E7F892B8093D101E2E551
:104E1000F0E08091CF01982F96958091D00181701C
:104E2000879588278795892B282F8091D001982FE7
:104E300096958091D1018170879588278795892BD8
:104E4000382F822F809580838091CF01982F96955F
:104E50008091D0018170879588278795892B282F8D
:104E60008091D001982F96958091D101817087957E
:104E700088278795892B382F2F3F310509F008F4B3
:104E800046C08091CE018F70482F50E08F85988961
:104E90009C01220F331F8BEC90E0BC01469FC001A8
:104EA000479F900D569F900D1124820F931FFC0178
:104EB000ED52FE4F80812181922F9770CC01A0E0AE
:104EC000B0E0BC01CD010E94622DDC01CB01BC0130
:104ED000CD010E944B26282F2F71822F8F70982F83
:104EE0009295907F8091CE018F70892B8093CE0117
:104EF000822F82958F708170982F91708091CF0151
:104F00008E7F892B8093CF01E2E5F0E010828091C3
:104F1000CE018F70482F50E08F8598899C01220F19
:104F2000331F8BEC90E0BC01469FC001479F900D62
:104F3000569F900D1124820F931FFC01EC52FE4FDF
:104F40008081869586958695882F90E0AA2797FD83
:104F5000A095BA2FBC01CD010E94B02CDC01CB0181
:104F60002DEC3CEC4CEC5DE3BC01CD010E947C2AB5
:104F7000DC01CB0120E030E04AE754E4BC01CD0184
:104F80000E947C2ADC01CB018B879C87AD87BE8782
:104F900020E030E04AE754E46B857C858D859E8572
:104FA0000E947C2ADC01CB018F839887A987BA876E
:104FB00020E030E040E85FE36F81788589859A855D
:104FC0000E94802C88232CF481E090E09E838D83C6
:104FD0003FC020E03FEF4FE757E46F817885898538
:104FE0009A850E94202C18164CF520E030E040E213
:104FF00051E46B857C858D859E850E947C2ADC0131
:10500000CB01BC01CD010E94A628DC01CB019E830F
:105010008D830FC084E690E09C838B838B819C8181
:105020000197F1F79C838B838D819E8101979E83ED
:105030008D838D819E81009769F714C06F8178857B
:1050400089859A850E94A628DC01CB019E838D83E9
:105050008D819E819A83898389819A810197F1F755
:105060009A8389838091D101982F929596959695F0
:1050700093708091D2018F70880F880F892B982FA1
:105080009F5F9F73892F8370282F2295220F220FF5
:10509000207C8091D1018F73822B8093D101892F45
:1050A000869586958F70982F9F708091D201807F12
:1050B000892B8093D2018091CA019091CB018630D7
:1050C0009105A9F42B893C898BEC90E0AC01249FDD
:1050D000C001259F900D349F900D1124FC01E556D1
:1050E000FD4F80818F77882F90E0988B8F878F85F9
:1050F00098890196988B8F872B893C898BEC90E05F
:10510000BC01269FC001279F900D369F900D112452
:10511000FC01E556FD4F80818F77282F30E08F8589
:105120009889281739070CF017CEA3E5B0E0E3E51E
:10513000F0E080818C7F8C93F89464960FB6F8949D
:10514000DEBF0FBECDBFCF91DF910895EF92FF92EA
:105150000F931F937B018C0120E030E040E05FE47F
:105160000E94502C88238CF020E030E040E05FE487
:10517000C801B7010E941E2A0E940E2D9B01AC019E
:10518000205030404040504806C0C801B7010E943E
:105190000E2D9B01AC01B901CA011F910F91FF9027
:1051A000EF900895A0E0B0E0E8EDF8E20C94D02F85
:1051B000DC012B01FA019C91923008F439C1EB011A
:1051C0008881823008F433C1943069F4843009F066
:1051D0002FC111969C9111978981981709F428C1C4
:1051E000AFEBB0E025C1843009F421C18230A9F4CD
:1051F000923009F01DC19A01AD0188E0EA010990E1
:10520000AE01E90109929E018150C1F7E201898155
:1052100011969C918923818308C1923009F407C1BA
:1052200012962D903C901397EB018A819B811496E6
:10523000AD90BD90CD90DC901797EC80FD800E81F5
:105240001F819101281B390BB90137FF04C0662764
:105250007727621B730B603271050CF061C0121668
:1052600013066CF537014801062E04C09694879406
:10527000779467940A94D2F721E030E040E050E060
:1052800004C0220F331F441F551F6A95D2F72150C7
:105290003040404050402E213F21402351232115D2
:1052A00031054105510521F021E030E040E050E0BA
:1052B00079018A01E628F728082919293CC0232BFF
:1052C000D1F1260E371E35014601062E04C09694F4
:1052D0008794779467940A94D2F721E030E040E015
:1052E00050E004C0220F331F441F551F6A95D2F7A8
:1052F00021503040404050402A213B214C215D212B
:10530000211531054105510521F021E030E040E053
:1053100050E059016A01A628B728C828D9280BC02F
:10532000821593052CF01C01AA24BB24650103C03F
:10533000EE24FF24870111969C91D20111968C9145
:10534000981709F445C0992339F0A80197012A1943
:105350003B094C095D0906C0A60195012E193F09BC
:10536000400B510B57FD08C01182338222822483E7
:105370003583468357831DC081E081833382228237
:1053800088279927DC01821B930BA40BB50B848320
:105390009583A683B7830DC0220F331F441F551F6B
:1053A0002483358346835783828193810197938336
:1053B00082832481358146815781DA01C9010197B1
:1053C000A109B1098F5F9F4FAF4FBF4328F30BC0B7
:1053D000918333822282EA0CFB1C0C1D1D1DE4828A
:1053E000F5820683178383E080832481358146819B
:1053F000578157FF1AC0C901AA2797FDA095BA2F58
:1054000081709070A070B07056954795379527952C
:10541000822B932BA42BB52B84839583A683B783F0
:1054200082819381019693838283DF0101C0D2013F
:10543000CD01CDB7DEB7E2E10C94EC2FA0E2B0E0F5
:10544000E4E2FAE20C94DC2F69837A838B839C83F9
:105450002D833E834F835887E9E0EE2EF12CEC0E2E
:10546000FD1EB701CE0101960E94FF2E8E010F5E38
:105470001F4FB801CE0105960E94FF2E8A8991E048
:1054800089278A8BAE01475E5F4FB801C7010E9432
:10549000D2280E942A2EA096E6E00C94F82FA0E2D3
:1054A000B0E0E5E5FAE20C94DC2F69837A838B8324
:1054B0009C832D833E834F835887F9E0EF2EF12C98
:1054C000EC0EFD1EB701CE0101960E94FF2E8E014B
:1054D0000F5E1F4FB801CE0105960E94FF2EAE0150
:1054E000475E5F4FB801C7010E94D2280E942A2E52
:1054F000A096E6E00C94F82FA0E2B0E0E2E8FAE231
:105500000C94D02F69837A838B839C832D833E8375
:105510004F835887BE01675F7F4FCE0101960E947F
:10552000FF2EBE016F5E7F4FCE0105960E94FF2EBB
:105530009985923088F089898230C8F0943019F4C6
:10554000823051F404C0843029F4923081F48FEB1E
:1055500090E0C6C0923049F420E09A858A89981379
:1055600021E02A87CE010996BBC0823049F420E0B1
:105570009A858A89981321E02A8BCE014196B0C082
:105580002D843E844F8458886D887E888F88988CBF
:10559000EE24FF248701AA24BB24650140E050E0EB
:1055A00060E070E0E0E0F0E0C10181709070892B74
:1055B000E9F0E60CF71C081D191D9A01AB012A0D34
:1055C0003B1D4C1D5D1D80E090E0A0E0B0E0E614C6
:1055D000F7040805190520F481E090E0A0E0B0E0B0
:1055E000BA01A901480F591F6A1F7B1FAA0CBB1CD7
:1055F000CC1CDD1C97FE08C081E090E0A0E0B0E08C
:10560000A82AB92ACA2ADB2A3196E032F10549F0E4
:10561000660C771C881C991C5694479437942794E1
:10562000C3CFFA85EA892B893C898B859C85280F15
:10563000391F2E5F3F4F17C0CA0181709070892BB0
:1056400061F016950795F794E79480E090E0A0E06C
:10565000B0E8E82AF92A0A2B1B2B7695679557950F
:1056600047952F5F3F4F77FDE7CF0CC0440F551F85
:10567000661F771F17FD4160EE0CFF1C001F111FF6
:1056800021503040403090E0590790E0690790E4A5
:10569000790760F32B8F3C8FDB01CA018F77907005
:1056A000A070B07080349105A105B10561F447FD8B
:1056B0000AC0E114F1040105110529F0405C5F4FB7
:1056C0006F4F7F4F40781A8EFE1711F081E08A8F5E
:1056D0004D8F5E8F6F8F78A383E0898FCE014996BF
:1056E0000E942A2EA096E2E10C94EC2FA8E1B0E0F3
:1056F000ECE7FBE20C94D82F69837A838B839C833D
:105700002D833E834F835887B9E0EB2EF12CEC0EAE
:10571000FD1EB701CE0101960E94FF2E8E010F5E85
:105720001F4FB801CE0105960E94FF2E2985223019
:1057300008F47CC03989323010F4B8017AC08A8507
:105740009A8989278A87243011F0223031F423176F
:1057500009F06CC06FEB70E06CC0343039F41D861A
:105760001E861F86188A1C861B8604C0323021F4D0
:1057700084E08987B7015DC02B853C858B899C8936
:10578000281B390B3C872B87ED84FE840F851889F5
:10579000AD88BE88CF88D88CEA14FB040C051D05A3
:1057A00040F4EE0CFF1C001F111F215030403C87BD
:1057B0002B8720E030E040E050E080E090E0A0E087
:1057C000B0E46FE170E0EA14FB040C051D0540F045
:1057D000282B392B4A2B5B2BEA18FB080C091D09D7
:1057E000B695A79597958795EE0CFF1C001F111F86
:1057F0006150704041F7DA01C9018F779070A07055
:10580000B07080349105A105B10561F427FD0AC08F
:10581000E114F1040105110529F0205C3F4F4F4FC1
:105820005F4F20782D873E874F87588BBE01675F7B
:105830007F4FCB010E942A2E6896EAE00C94F42F49
:10584000A8E1B0E0E6E2FCE20C94DC2F69837A8305
:105850008B839C832D833E834F83588789E0E82E7A
:10586000F12CEC0EFD1EB701CE0101960E94FF2E19
:105870008E010F5E1F4FB801CE0105960E94FF2ECC
:105880008985823040F08989823028F0B801C701CB
:105890000E94772F01C08FEF6896E6E00C94F82FF6
:1058A000A8E1B0E0E6E5FCE20C94DC2F69837A83A2
:1058B0008B839C832D833E834F83588789E0E82E1A
:1058C000F12CEC0EFD1EB701CE0101960E94FF2EB9
:1058D0008E010F5E1F4FB801CE0105960E94FF2E6C
:1058E0008985823040F08989823028F0B801C7016B
:1058F0000E94772F01C08FEF6896E6E00C94F82F96
:10590000A8E1B0E0E6E8FCE20C94DC2F69837A833E
:105910008B839C832D833E834F83588789E0E82EB9
:10592000F12CEC0EFD1EB701CE0101960E94FF2E58
:105930008E010F5E1F4FB801CE0105960E94FF2E0B
:105940008985823040F08989823028F0B801C7010A
:105950000E94772F01C081E06896E6E00C94F82F52
:10596000A8E0B0E0E6EBFCE20C94D92F9B01AC017F
:1059700083E08983DA01C9018827B7FD83959927D8
:10598000AA27BB27B82E211531054105510519F469
:1059900082E089833AC08823A9F0203080E038076C
:1059A00080E0480780E8580729F460E070E080E074
:1059B0009FEC30C0EE24FF248701E21AF30A040BA7
:1059C000150B02C079018A018EE1C82ED12CDC8230
:1059D000CB82ED82FE820F831887C801B7010E9437
:1059E000DB2D01971816190684F4082E04C0EE0C5E
:1059F000FF1C001F111F0A94D2F7ED82FE820F8355
:105A00001887C81AD90ADC82CB82BA82CE010196E5
:105A10000E942A2E2896E9E00C94F52FACE0B0E025
:105A2000E4E1FDE20C94E02F69837A838B839C830D
:105A3000BE016B5F7F4FCE0101960E94FF2E8D81CC
:105A4000823061F1823050F1843021F48E818823DC
:105A500051F12EC02F81388537FD20C06E812F3146
:105A600031051CF06623F9F023C08EE190E0821B23
:105A7000930B29853A854B855C8504C056954795DF
:105A8000379527958A95D2F76623B1F050954095C2
:105A9000309521953F4F4F4F5F4F0EC020E030E0D3
:105AA00040E050E009C02FEF3FEF4FEF5FE704C049
:105AB00020E030E040E050E8B901CA012C96E2E075
:105AC0000C94FC2FA8E0B0E0E8E6FDE20C94DA2F9D
:105AD0007B018C01611571058105910519F482E046
